:020000040040BA
:1000000018274020592540000926400009264000B5
:100010000926400009264000092640000000000093
:100020000000000000000000000000000926400061
:100030000926400000000000092640000926400073
:10004000092640000926400009264000212F4000D3
:1000500009264000092640000926400009264000E4
:100060000926400000000000C91C4000E11C4000BF
:10007000F91C4000092640000926400009264000DE
:10008000111D4000291D400009264000092640009E
:1000900009264000092640000926400009264000A4
:1000A0000926400009264000092640000926400094
:1000B0000926400009264000092640000926400084
:1000C0000926400009264000092640000926400074
:1000D0000000000009264000000000000926400042
:1000E0000926400009264000092640000926400054
:1000F0000926400009264000092640000926400044
:100100000926400009264000092640000926400033
:100110000926400000000000000000000000000070
:100120000926400009264000092640000926400013
:100130000926400000000000092640000926400072
:1001400010B5054C237833B9044B13B10448AFF311
:1001500000800123237010BD4404402000000000F3
:10016000303940000C4B43B10C480D4910B5AFF38A
:1001700000800C48036823B910BD0A48036833B9EE
:100180007047094B002BF7D0BDE810401847064BCD
:10019000002BF5D0184700BF0000000030394000A8
:1001A00048044020303940000000000080B483B093
:1001B00000AF78607B68DB6818460C37BD465DF899
:1001C000047B704780B483B000AF78607B685B6865
:1001D00003F00203002B01D0012300E000231846A6
:1001E0000C37BD465DF8047B7047000080B582B0D7
:1001F00000AF78607868034B984700BF0837BD466A
:1002000080BD00BF0520400080B582B000AF78609F
:100210007B68094A934203D11520084B984706E0B2
:100220007B68074A934202D12A20044B984700BFBB
:100230000837BD4680BD00BF00800040ED01400092
:100240000080054080B483B000AF786039607B687F
:100250005B6823F470227B685A607B685A683B684D
:100260001B0403F470231A437B685A6000BF0C37E9
:10027000BD465DF8047B704780B584B000AF786000
:10028000084611461A4603467B800B467B70134690
:100290003B7043F69823FB6006E0FB685A1EFA6049
:1002A000002B01D1012320E07B681B6903F00203CE
:1002B000002BF2D078680F4B98470346002B0ED0E6
:1002C0007A887B781B0403F470231343BB603B786C
:1002D000002B06D0BB6843F08073BB6001E07B88D5
:1002E000BB607B68BA68DA60002318461037BD46E9
:1002F00080BD00BFC501400080B485B000AFF8608C
:10030000B9607A607B68002B0CD0FB68BA680C324D
:1003100053F8223043F00101FB68BA680C3243F80D
:1003200022100BE0FB68BA680C3253F8223023F03D
:100330000101FB68BA680C3243F8221000BF143781
:10034000BD465DF8047B704780B485B000AFF860AF
:10035000B9607A607B68002B0CD0FB68BA680C32FD
:1003600053F8223043F00201FB68BA680C3243F8BC
:1003700022100BE0FB68BA680C3253F8223023F0ED
:100380000201FB68BA680C3243F8221000BF143730
:10039000BD465DF8047B704780B485B000AFF8605F
:1003A000B9607A607B68042B18D1FB68BA680C329C
:1003B00053F8223023F00801FB68BA680C3243F886
:1003C0002210FB68BA680C3253F8223043F0040163
:1003D000FB68BA680C3243F822102AE07B68002BD5
:1003E00018D1FB68BA680C3253F8223023F00801A8
:1003F000FB68BA680C3243F82210FB68BA680C320A
:1004000053F8223023F00401FB68BA680C3243F839
:1004100022100EE07B68082B0BD1FB68BA680C3207
:1004200053F8223043F00801FB68BA680C3243F8F5
:10043000221000BF1437BD465DF8047B704780B4BE
:1004400085B000AFF860B9607A60FB68BA680C32BA
:1004500053F8223023F0F001FB68BA680C3243F8FD
:100460002210FB68BA680C3253F822207B6842EAFB
:100470000301FB68BA680C3243F8221000BF14373E
:10048000BD465DF8047B704780B485B000AF7860EE
:1004900039603A687B6813445A1E7B68B2FBF3F3F9
:1004A000FB60FB68002B02DDFB68FF2B02DD4FF0D9
:1004B000FF3301E0FB681BB218461437BD465DF8F8
:1004C000047B704780B485B000AFF860B960134614
:1004D000FB71FB79002B02D14FF0FF331BE0FB686F
:1004E000BA680C3253F8223023F47F41FB68BA68B3
:1004F0000C3243F82210FB68BA680C3253F8222001
:10050000FB791B029BB242EA0301FB68BA680C321A
:1005100043F82210002318461437BD465DF8047BCB
:100520007047000080B483B000AF7860044A7B68F5
:10053000136000BF0C37BD465DF8047B704700BFF9
:100540006004402080B483B000AF0346FB710B46CB
:10055000BB7113467B71084B1A68FB79DB011946A6
:10056000BB790B4413447A791A7000BF0C37BD462F
:100570005DF8047B704700BF6004402080B483B006
:1005800000AF03460A46FB711346BB71074B1A685E
:10059000FB79DB011946BB790B4413441B781846E1
:1005A0000C37BD465DF8047B704700BF60044020F7
:1005B00080B582B000AF0346FB71FB7903F00F03F7
:1005C000FB71FB7963F04F03DBB21846024B98478F
:1005D00000BF0837BD4680BDED0D400080B582B03C
:1005E00000AF0346FB71FB7903F07F03FB71FB79DE
:1005F0001B09DBB243F01003DBB21846064B9847E9
:10060000FB7903F00F03DBB21846034B984700BF9A
:100610000837BD4680BD00BFED0D400080B582B0FB
:1006200000AF0346FB71FB7903F03F03FB71FB79DD
:1006300043F04003DBB21846024B984700BF08372F
:10064000BD4680BDED0D400090B583B000AF1248AF
:10065000124B9847124B98470020124B98470023A3
:10066000FB7112E00023BB7108E0B979F87901232E
:1006700000220D4CA047BB790133BB7197F90630BE
:10068000002BF2DAFB790133FB71FB79032BE9D9FB
:1006900000BF0C37BD4690BD6404402025054000D6
:1006A0003D0D40001D064000AD06400090B583B0F2
:1006B00000AF0446084611461A462346FB7103461E
:1006C000BB710B467B7113463B713B7983F0010391
:1006D000DBB2002B0AD0BA79FB79114618460F4BD2
:1006E000984703461A467B79934212D07A79B979B2
:1006F000FB7918460A4B9847FB791846094B9847EF
:10070000BB791846084B98477B791846074B9847A2
:1007100000E000BF0C37BD4690BD00BF7D05400026
:1007200045054000B1054000DD054000910E400048
:1007300080B483B000AF78607B68072B25D801A216
:1007400052F823F0650740006B0740007107400036
:10075000770740007B0740007F0740008307400089
:10076000870740004FF4FA4310E04FF400430DE0D8
:100770004FF400430AE0084B08E0084B06E0084B42
:1007800004E0074B02E0064B00E0002318460C375C
:10079000BD465DF8047B704700093D0000127A00F9
:1007A000001BB70080B500AF0620054B98470246F6
:1007B00013469B0013449A001344184680BD00BFA3
:1007C0003107400080B500AF024B984703461846FA
:1007D00080BD00BFA507400080B500AF024B984721
:1007E00003465B08184680BDA507400080B489B069
:1007F00000AF78607B68FB61FB69BB61BB695A092C
:10080000FB697B617B6903F01F03012101FA03F39C
:100810003A61FB603B69BB60BA68064B13445B02FC
:100820001A46FB68136000BF2437BD465DF8047BA1
:10083000704700BF0707200080B48DB000AF78601C
:1008400039607B68FB623B68BB62FB6A7B627B6AE8
:100850005A09FB6A3B623B6A03F01F03012101FA5C
:1008600003F3FA61BB61BB6A7B61FB693B613A6977
:10087000374B13445B02FB607B6903F00803002BDA
:1008800003D0FB68BA695A6602E0FB68BA691A6667
:100890007B6903F01003002B04D0FB68BA69C3F82E
:1008A000942003E0FB68BA69C3F890207B6903F0E9
:1008B0002003002B03D0FB68BA691A6502E0FB68CD
:1008C000BA695A657B6903F0C003002B03D0FB684B
:1008D000BA691A6202E0FB68BA695A627B6903F07E
:1008E0008003002B04D0FB68BA69C3F8842003E0BE
:1008F000FB68BA69C3F880207B6903F00103002B11
:1009000006D0FB681A6FBB691A43FB681A6706E0DA
:10091000FB681A6FBB69DB431A40FB681A677B6987
:1009200003F00203002B06D0FB685A6FBB691A4321
:10093000FB685A6706E0FB685A6FBB69DB431A40E5
:10094000FB685A6700BF3437BD465DF8047B7047CB
:100950000707200080B48DB000AF78600B46FB70B5
:100960007B68FB62FB7887F82B30FB6A7B627B6AD3
:100970003B623B6A5B09FB61FA69174B13445B02FC
:10098000BB6197F82B30012B09D1FB6A7B617B6936
:1009900003F01F0301229A40BB691A610CE097F82B
:1009A0002B30002B08D1FB6A3B613B6903F01F032E
:1009B00001229A40BB695A61FB6AFB60FB6803F045
:1009C0001F0301229A40BB69C3F8A02000BF34373F
:1009D000BD465DF8047B70470707200080B48BB0EC
:1009E00000AF78600B46FB707B687B62FB7887F812
:1009F00023307B6AFB61FB69BB61BB695B097B617F
:100A00007A69104B13445B023B6197F82330002B4B
:100A100009D07B6AFB60FB6803F01F0301229A4048
:100A20003B691A6308E07B6ABB60BB6803F01F0385
:100A300001229A403B695A6300BF2C37BD465DF8DE
:100A4000047B70470707200080B483B000AF786054
:100A50007B6880221A6000BF0C37BD465DF8047BBE
:100A6000704780B483B000AF78607B6801221A6061
:100A700000BF0C37BD465DF8047B704780B483B07F
:100A800000AF78607B6802221A6000BF0C37BD4659
:100A90005DF8047B704780B483B000AF78607B68FA
:100AA0005B6843F001027B685A6000BF0C37BD46AB
:100AB0005DF8047B704780B483B000AF78607B68DA
:100AC0005B6823F002027B685A6000BF0C37BD46AA
:100AD0005DF8047B704780B483B000AF78607B68BA
:100AE0005B6843F010027B685A6000BF0C37BD465C
:100AF0005DF8047B704780B483B000AF78607B689A
:100B00005B6823F080027B685A6000BF0C37BD46EB
:100B10005DF8047B7047000080B582B000AF0F4BDA
:100B2000984702460E4BA3FB02239A0C13469B00E8
:100B300013445B007B60002151200A4B9847786882
:100B4000094B984701215120064B98477868064B7E
:100B5000984700BF0837BD4680BD00BFC5074000AD
:100B600083DE1B43DD0940000100402080B500AF5B
:100B7000AF20024B984700BF80BD00BFED0D400085
:100B800080B582B000AF0346FB718120054B9847CA
:100B9000FB791846034B9847FB7918460837BD4642
:100BA00080BD00BFED0D400080B500AFA620024B18
:100BB000984700BF80BD00BFED0D400090B583B0E9
:100BC00000AF01215120464B984701212320444B7F
:100BD000984708215120434B984708212320414B37
:100BE00098472320404B984751203F4B984701217D
:100BF00023203E4B9847012151203C4B984700232E
:100C00004FF480024FF0805139483A4CA0470023FE
:100C10004FF400124FF080513548364CA047002366
:100C20004FF000724FF080513148324CA047002302
:100C30004FF480024FF080512D482E4CA0470023E6
:100C40004FF400124FF0805129482A4CA04700234E
:100C50004FF000724FF080512548264CA04726489F
:100C6000264B98472448264B98472348254B9847BE
:100C7000082201212048244B9847002201211E48C8
:100C8000224B9847002201211B48214B98471A48C4
:100C9000204B98470022012117481F4B98471648C0
:100CA0001E4B984714481E4B98471E4B98470346C7
:100CB00019461D481D4B984703467B607B68DBB295
:100CC0001A4601210C481A4B98470B48194B984774
:100CD0000948194B984700BF0C37BD4690BD00BF6F
:100CE0005509400039084000ED074000DD0940008B
:100CF00000140E40D5194000008000407D0A4000DD
:100D0000490A4000970A400099034000F902400058
:100D100049034000B70A40003F044000F70A400082
:100D2000D70A4000D907400040420F008904400024
:100D3000C504400009024000630A400080B500AFCE
:100D4000234B9847234B984701215120224B98472A
:100D5000A820224B98471F20204B9847D3201F4B99
:100D6000984700201D4B984740201C4B9847A120D6
:100D70001A4B9847C820194B9847DA20174B9847C9
:100D80000220164B98478F20154B9847A420134BF1
:100D90009847144B9847D520104B984780200F4B0D
:100DA00098478D200D4B984714200C4B9847DB201B
:100DB0000A4B98474020094B9847D920074B984742
:100DC000F120064B9847084B984700BF80BD00BFF5
:100DD000BD0B4000190B4000DD094000ED0D400047
:100DE000810B4000A90B40006D0B4000F0B583B0B3
:100DF00000AF0346FB71002123201C4B98470121C3
:100E00001B481C4B9847FB7999B2012301221848D3
:100E1000194CA047194B9847034619464FF000025A
:100E20000B461446A60046EA93769D002B463446B0
:100E30005B1844EB0204DB1844EB04041946224619
:100E40000F4B4FF00004CD1842EB04062846314604
:100E50000C4C0D4A4FF00003A04703460C461846C1
:100E60000A4B984700BF0C37BD46F0BDDD09400076
:100E7000008000404502400079024000C507400064
:100E8000DF835A0069344000E0835A0001004020AB
:100E9000F0B583B000AF0346FB71012123201C4B4A
:100EA000984701211B481C4B9847FB7999B20123B5
:100EB00001221848194CA047194B98470346194678
:100EC0004FF000020B461446A60046EA93769D00BA
:100ED0002B4634465B1844EB0204DB1844EB040455
:100EE000194622460F4B4FF00004CD1842EB040682
:100EF000284631460C4C0D4A4FF00003A0470346EC
:100F00000C4618460A4B984700BF0C37BD46F0BD4B
:100F1000DD094000008000404502400079024000A9
:100F2000C5074000DF835A0069344000E0835A005F
:100F30000100402080B582B000AF78607B68072B4D
:100F400031D801A252F823F0A50F4000690F4000EC
:100F5000710F4000790F4000810F4000890F400061
:100F6000910F40009B0F40000020114B98471AE062
:100F700001200F4B984716E000200E4B984712E0D7
:100F800010200C4B98470EE020200A4B98470AE0AF
:100F90003E210020084B984705E03E210120064BEA
:100FA000984700E000BF00BF0837BD4680BD00BFC6
:100FB000411E4000AD1E40001D1F400080B582B0A4
:100FC00000AF78607B68072B26D801A252F823F087
:100FD000F10F4000F50F4000F50F400007104000F2
:100FE00007104000071040000710400007104000A5
:100FF000012312E00B4B98470346002B14BF01233B
:101000000023DBB209E0084B98470346002B14BFCE
:1010100001230023DBB200E0002318460837BD4659
:1010200080BD00BF791E4000951F400080B483B092
:1010300000AF78607B68072B25D801A252F823F017
:1010400061104000671040006D10400073104000B8
:10105000771040007B1040007F104000831040005C
:101060004FF4FA4310E04FF400430DE04FF4004317
:101070000AE0084B08E0084B06E0084B04E0074B89
:1010800002E0064B00E0002318460C37BD465DF831
:10109000047B704700093D0000127A00001BB70076
:1010A00080B582B000AF0346FB7100BFFB791846E4
:1010B000054B9847034683F00103DBB2002BF5D1C3
:1010C00000BF0837BD4680BDBD0F400080B586B06B
:1010D00000AFF8607A603B600B46FB727B68002BC8
:1010E00007D13B68002B04D1FB684FF470021A60F3
:1010F00019E0FB7A18460E4B984702467B68B2FB14
:10110000F3F37B617B693A6802FB03F37B613B6825
:10111000013B1A04074B13407A68D2B2134343F4DD
:101120007C52FB681A6000BF1837BD4680BD00BF07
:101130002D1040000000FF0780B582B000AF78603E
:1011400039603B68002B08D1094B9847094A7B68F6
:101150001B6843F00053936205E0064A7B681B68F6
:1011600043F48033D36100BF0837BD4680BD00BF64
:10117000B11F400000060E4080B582B000AF78601D
:101180007B68002B03D1054B9847034602E0044BD4
:101190009847034618460837BD4680BDCD1F40001E
:1011A000E91F400080B582B000AF0346FB71FB79B8
:1011B000033B042B08D8FB791846064B9847FB796C
:1011C0001846054B984700E000BF00BF0837BD46F2
:1011D00080BD00BF350F4000A110400080B582B037
:1011E00000AF786000BF7868044B98470346002B37
:1011F000F9D0002318460837BD4680BD791140005C
:1012000080B500AF0620054B9847024613469B0069
:1012100013449A001344184680BD00BF2D104000AF
:1012200080B500AF024B98470346184680BD00BF0B
:101230000112400090B583B000AF1348134B98479C
:101240000620134B9847381D192301220621114C03
:10125000A0473B1D002118460F4B984700200F4B1D
:10126000984702200E4B984700200E4B98470E4B94
:1012700098470E4B984703461846044B984700BFC3
:101280000C37BD4690BD00BF00A3E1117927400097
:10129000A5114000CD10400039114000DD11400083
:1012A000411D4000BD1D400011264000211240009C
:1012B00080B400AFBFF34F8FBFF36F8F094B002295
:1012C000C3F85022074A074B5B6943F4003353616C
:1012D000BFF34F8FBFF36F8F00BFBD465DF8047B38
:1012E000704700BF00ED00E080B48BB000AF264B2C
:1012F000D3F88030FB61FB695B0BC3F30E037B62A9
:10130000FB6903F007030433BB61FB69DB08C3F32C
:1013100009037B617B69BB60BB68B3FA83F37B60C5
:101320007B68DBB203F01F033B61BFF34F8F7B6928
:101330003B623A6A3B6902FA03F319467A6ABB696F
:1013400002FA03F30B43FB600F4AFB68C2F86032FA
:101350003B6A5A1E3A62002BEBD17B6A5A1E7A62B4
:10136000002BE4D1BFF34F8F074A074B5B6943F46F
:1013700080335361BFF34F8FBFF36F8F00BF2C37A4
:10138000BD465DF8047B704700ED00E080B582B09B
:1013900000AF78607868034B984700BF0837BD46B8
:1013A00080BD00BF0520400080B500AF0A20084B7B
:1013B00098470B20064B98470C20054B9847102068
:1013C000034B98471120024B984700BF80BD00BFD8
:1013D0008D13400080B48DB000AF786039607B68B9
:1013E000FB623B68BB62FB6A7B627B6A5A09FB6AF1
:1013F0003B623B6A03F01F03012101FA03F3FA6128
:10140000BB61BB6A7B61FB693B613A69374B134443
:101410005B02FB607B6903F00803002B03D0FB68D1
:10142000BA695A6602E0FB68BA691A667B6903F01A
:101430001003002B04D0FB68BA69C3F8942003E0C2
:10144000FB68BA69C3F890207B6903F02003002B86
:1014500003D0FB68BA691A6502E0FB68BA695A658D
:101460007B6903F0C003002B03D0FB68BA691A62E2
:1014700002E0FB68BA695A627B6903F08003002BC3
:1014800004D0FB68BA69C3F8842003E0FB68BA693A
:10149000C3F880207B6903F00103002B06D0FB68B2
:1014A0001A6FBB691A43FB681A6706E0FB681A6F7C
:1014B000BB69DB431A40FB681A677B6903F00203D0
:1014C000002B06D0FB685A6FBB691A43FB685A674A
:1014D00006E0FB685A6FBB69DB431A40FB685A673A
:1014E00000BF3437BD465DF8047B70470707200016
:1014F00080B48DB000AF78600B46FB707B68FB62F8
:10150000FB7887F82B30FB6A7B627B6A3B623B6A25
:101510005B09FB61FA69174B13445B02BB6197F8E7
:101520002B30012B09D1FB6A7B617B6903F01F0320
:1015300001229A40BB691A610CE097F82B30002B0E
:1015400008D1FB6A3B613B6903F01F0301229A400B
:10155000BB695A61FB6AFB60FB6803F01F03012251
:101560009A40BB69C3F8A02000BF3437BD465DF880
:10157000047B70470707200080B48BB000AF786011
:101580000B46FB707B687B62FB7887F823307B6AB5
:10159000FB61FB69BB61BB695B097B617A69104BCD
:1015A00013445B023B6197F82330002B09D07B6A20
:1015B000FB60FB6803F01F0301229A403B691A633A
:1015C00008E07B6ABB60BB6803F01F0301229A40FE
:1015D0003B695A6300BF2C37BD465DF8047B7047FA
:1015E0000707200080B48DB000AF78600B46FB7019
:1015F0007B68FB62FB7887F82B30FB6A7B627B6A37
:101600005A09FB6A3B623B6A03F01F03012101FA9E
:1016100003F3FA61BB6197F82B30FB75FB693B6103
:101620003A69234B13445B02FB60FB7D013B032BB8
:101630002ED801A252F823F06D1640007F1640000C
:10164000491640005B164000FB68BA69C3F8C42025
:10165000FB68BA69C3F8D0201FE0FB68BA69C3F819
:10166000C420FB68BA69C3F8D42016E0FB68BA69E5
:10167000C3F8C020FB68BA69C3F8D0200DE0FB684E
:10168000BA69C3F8C020FB68BA69C3F8D42004E083
:10169000FB68BA69C3F8B42003E0FB68BA69C3F811
:1016A000B02000BF3437BD465DF8047B704700BFF3
:1016B0000707200080B400AFBFF34F8FBFF36F8FD9
:1016C0000C4A0C4BD3F8903223F00103C2F890324D
:1016D000084A084BD3F8943223F00103C2F894323D
:1016E000BFF34F8FBFF36F8F00BFBD465DF8047B24
:1016F000704700BF00ED00E080B500AF134B4FF422
:1017000000425A60124B9847124B9847124B134AAB
:101710005A60114B124A5A60124B9847124B984725
:1017200001214820114B984701214820104B984730
:1017300000210B200D4B984788210B200D4B98471B
:1017400002210B200C4B984700BF80BD50180E4063
:10175000B1124000E9124000000C0E400C08005A83
:101760000C07005AB5164000A9134000F1144000C0
:1017700079154000D5134000E515400080B485B0D0
:1017800000AFF860B9607A607B68002B03D0FB681B
:10179000BA685A6602E0FB68BA681A6600BF143776
:1017A000BD465DF8047B704780B483B000AF7860BD
:1017B00039607B683A681A6300BF0C37BD465DF834
:1017C000047B704780B483B000AF786039607B6879
:1017D0003A685A6300BF0C37BD465DF8047B70471A
:1017E00080B487B000AFF860B9607A60FB687A684F
:1017F0005A64BB68B3F1C05F4AD0B3F1C05F08D888
:10180000B3F1006F16D0B3F1805F2CD0002B69D0FC
:1018100064E0B3F1205F65D0B3F1205F03D8B3F18A
:10182000005F4AD05AE0B3F1405F5BD0B3F1605F34
:1018300058D053E0FB681B6F7B61FB681A6F7B68B5
:10184000D9437B690B401A40FB681A67FB685B6FE2
:101850007B61FB685A6F7B68D9437B690B401A40F8
:10186000FB685A673AE0FB681B6F7B617A687B69AB
:101870001A43FB681A67FB685B6F7B61FB685A6FF2
:101880007B68D9437B690B401A40FB685A6725E0A7
:10189000FB681B6F7B61FB681A6F7B68D9437B69B0
:1018A0000B401A40FB681A67FB685B6F7B617A68C4
:1018B0007B691A43FB685A6710E0FB681B6F7B610A
:1018C0007A687B691A43FB681A67FB685B6F7B6108
:1018D0007A687B691A43FB685A6700BFFB687A68BD
:1018E0005A6000E000BF1C37BD465DF8047B7047BE
:1018F00080B584B000AFF860B9607A60B968F86804
:10190000194B98477B6803F001031A46B968F868D9
:10191000164B98477B6803F00A03002B03D0FB6843
:10192000BA681A6202E0FB68BA685A627B6803F020
:101930000203002B04D0FB68BA68C3F8802008E0DB
:101940007B6803F00803002B03D0FB68BA68C3F878
:101950008420FB68BA685A61FB68BA681A6000BFE5
:101960001037BD4680BD00BF291B40007D174000D9
:1019700080B584B000AFF860B9607A603B60B96848
:10198000F868124B9847BA69B968F868104B9847DD
:101990003B68002B03D0FB68BA681A6502E0FB685D
:1019A000BA685A657B68002B03D0FB68BA681A6373
:1019B00002E0FB68BA685A63FB68BA681A61FB68A0
:1019C000BA681A6000BF1037BD4680BD291B4000B1
:1019D0007D17400090B587B002AFF860B9607A60BB
:1019E0003B60BB68B3F1005F16D0B3F1005F09D86C
:1019F000B3F1805F10D0B3F1C05F0DD0B3F1006FD1
:101A00000AD03DE0B3F1405F1AD0B3F1605F17D068
:101A1000B3F1205F0ED033E07A68B968F8681C4BE8
:101A200098473B6803F001031A467968F868194B38
:101A3000984727E03A687968F868174B984721E09B
:101A4000BB68B3F1605F0CBF01230023DBB21A4611
:101A50003B6803F00403002B14BF01230023DBB217
:101A600019463B6803F00103002B14BF0123002338
:101A7000DBB200930B467968F868084CA04701E098
:101A8000002300E0012318461437BD4690BD00BF77
:101A9000E11740007D174000F11840007119400027
:101AA00080B485B000AFF860B9607A607B6803F0FD
:101AB0001003002B20D0FB68BA68C3F8B0207B6805
:101AC00003F02003002B04D0FB68BA68C3F8D420CD
:101AD00003E0FB68BA68C3F8D0207B6803F04003DA
:101AE000002B04D0FB68BA68C3F8C02008E0FB688C
:101AF000BA68C3F8C42003E0FB68BA68C3F8B4202E
:101B000000BF1437BD465DF8047B704780B483B0D6
:101B100000AF786039607B683A681A6400BF0C37A0
:101B2000BD465DF8047B704780B483B000AF786039
:101B300039607B683A685A6400BF0C37BD465DF86F
:101B4000047B704780B483B000AF78607B68DB6C47
:101B500018460C37BD465DF8047B704780B483B0EF
:101B600000AF78607B689B6C18460C37BD465DF80B
:101B7000047B704780B584B000AF786039607868C6
:101B8000264B9847F8607868254B98470246FB68D3
:101B90001340FB60FB68002B3CD00023BB6034E0AB
:101BA000204ABB681B0113441A683B689A4226D13D
:101BB0001C4ABB681B01134404331A68FB681340BA
:101BC000002B1CD0174ABB681B0113440C331B6845
:101BD0001449BA6812010A4410681249BA6812011D
:101BE0000A4404321268114698470E4ABB681B012A
:101BF000134404331B68DB43FA681340FB60BB6883
:101C00000133BB60BB68062B03D8FB68002BC7D130
:101C100000E000BF00BF1037BD4680BD451B40003F
:101C20005D1B40006406402080B586B000AFF860C0
:101C3000B9607A603B60214B1B68062B01D90123F8
:101C400038E00023FB7511E0FB7D1B011C4A1344A7
:101C50003B613B691A68BB689A4204D13B695A6888
:101C60007B689A4208D0FB7D0133FB75FA7D134BEC
:101C70001B689A42E8D900E000BF3B69BA681A6065
:101C80003B697A685A603B693A689A603B693A6A8C
:101C9000DA60FA7D094B1B6801339A4204D1074B85
:101CA0001B680133054A13603A687968F868054B88
:101CB0009847002318461837BD4680BDD4064020FB
:101CC00064064020A11A400080B500AF0A210248F6
:101CD000024B984700BF80BD000E0E40751B4000B0
:101CE00080B500AF0B210248024B984700BF80BD72
:101CF00000100E40751B400080B500AF0C2102485B
:101D0000024B984700BF80BD00120E40751B40007B
:101D100080B500AF10210248024B984700BF80BD3C
:101D200000140E40751B400080B500AF1121024821
:101D3000024B984700BF80BD00160E40751B400047
:101D400080B483B000AF78607B68013B032B1AD866
:101D500001A252F823F000BF691D40006F1D400032
:101D6000771D40007F1D400000237B600EE04FF494
:101D700080737B600AE04FF440737B6006E04FF4B1
:101D800000737B6002E000237B6000BF0A490A4BBE
:101D90001B6B23F440727B6813430B6300BF064B3D
:101DA0009B6E03F00803002BF9D000BF0C37BD4633
:101DB0005DF8047B704700BF00060E4080B485B01C
:101DC00000AF78601D491D4B1B6B23F070027B68D0
:101DD00013430B634FF48053FB6007E0FB68002B59
:101DE00001D1012323E0FB68013BFB60134B9B6E99
:101DF00003F00803002BF1D0104A104B1B6B23F0AB
:101E0000030343F0020313634FF48053FB6007E0C6
:101E1000FB68002B01D1012309E0FB68013BFB605B
:101E2000064B9B6E03F00803002BF1D000231846ED
:101E30001437BD465DF8047B704700BF00060E40B6
:101E400080B483B000AF78607B68012B05D107496F
:101E5000064B9A68064B13438B60044B054A1A6085
:101E600000BF0C37BD465DF8047B704710180E406C
:101E7000000010A5080000A580B400AF094B5B6905
:101E800003F08003002B07D0074B9B6E03F0800309
:101E9000002B01D0012300E000231846BD465DF869
:101EA000047B704710180E4000060E4080B483B0CB
:101EB00000AF78601549154B1A6A154B13430B6236
:101EC00000BF124B9B6E03F40033002BF9D00F4977
:101ED0000E4B1A6A0F4B13407A68134343F45C139A
:101EE0000B6200BF094B9B6E03F40033002BF9D04B
:101EF0000649064B1A6A084B134043F45C130B6205
:101F000000BF0C37BD465DF8047B704700060E40ED
:101F1000080037008FFFC8FFFFFFC8FE80B483B002
:101F200000AF786039607B68002B08D01349134BF1
:101F30001B6A134A1A40134B13430B6218E00F49F4
:101F40000E4B1A6A104B13403A68120292B21A43AF
:101F50000E4B13430B6200BF084B9B6E03F0010353
:101F6000002BF9D00549054B1A6A094B13430B6244
:101F700000BF0C37BD465DF8047B704700060E407D
:101F8000FCFFC8FE02003701FCFFC8FF010037005C
:101F90000000370180B400AF044B9B6E03F4803324
:101FA0001846BD465DF8047B704700BF00060E4032
:101FB00080B400AF044B4FF000529A6200BFBD46A0
:101FC0005DF8047B704700BF00060E4080B400AF90
:101FD000044B9B6E03F002031846BD465DF8047B7C
:101FE000704700BF00060E4080B400AF044B9B6EEC
:101FF00003F040031846BD465DF8047B704700BF00
:1020000000060E4080B483B000AF78607B683F2B41
:1020100001D901232FE07B681F2B13D8194B9A6934
:1020200001217B6801FA03F31A4001217B6801FA60
:1020300003F39A421ED0134A01217B6801FA03F38D
:10204000136117E07B68203B7B600E4BD3F80821BF
:1020500001217B6801FA03F31A4001217B6801FA30
:1020600003F39A4206D0074A01217B6801FA03F381
:10207000C2F80031002318460C37BD465DF8047BDA
:10208000704700BF00060E4080B483B000AF786098
:10209000044A7B68136000BF0C37BD465DF8047BC3
:1020A000704700BF0C00402080B483B000AF204BCD
:1020B0001B6F7B607B6823F4C0037B607B6843F409
:1020C00080037B601A4A7B6813671949184B1A6AA8
:1020D000184B13430B6200BF154B9B6E03F00803B4
:1020E000002BF9D000237B6003E000BF7B68013345
:1020F0007B607B68B3F5FA7FF7D300BF0C4B1B6A9C
:1021000003F00803002BF9D0094B1B6F7B607B6841
:1021100023F4C0037B607B6843F480037B60044A44
:102120007B68136700BF0C37BD465DF8047B7047C2
:1021300000060E400400370090B599B000AF7860FB
:102140007B68013B042B00F2A58101A252F823F029
:102150006521400065214000852140008521400027
:1021600073244000724A724B1B6923F0040313610D
:10217000704B01221A70BFF35F8F62B6BFF34F8FAF
:1021800030BF87E17B68032B03D100206A4B98475F
:1021900003E04FF40010684B984772B6BFF35F8FAF
:1021A000644B00221A70654B01221A707B68042B65
:1021B0000CBF01230023DAB207F11C033B6407F1D3
:1021C0001803FB6307F11403BB6307F110037B6380
:1021D00007F10C033B63134687F82F30584B1B6AFB
:1021E000BB62574B1B6B7B62564B1B683B623B6C65
:1021F000002B02D03B6CBA6A1A60FB6B002B03D039
:102200004F4B9A6AFB6B1A60BB6B002B02D0BB6B07
:1022100000221A607B6B002B02D07B6B7A6A1A60FB
:102220003B6B002B02D03B6B3A6A1A604449BA6A96
:10223000454B13430B627B6A03F00303012B0ED95A
:102240007B6A23F0030343F001037B623C4A7B6A11
:1022500013633B4B9B6E03F00803002BF9D07B6AA2
:1022600003F07003002B0CD07B6A23F070037B62B9
:10227000334A7B6A1363324B9B6E03F00803002BD7
:10228000F9D0324B98472E4B9B6E03F40033002B52
:10229000F9D02B492A4B1A6A2D4B134043F45C1397
:1022A0000B62274B9B6E03F48033002BF9D0254A39
:1022B0003B6A23F47063136097F82F30002B07D02C
:1022C0001F491F4B1A6A234B134043F45C130B62E4
:1022D000184B01221A70BFF35F8F62B61E4B9847EE
:1022E00072B6BFF35F8F134B00221A70FC69B86996
:1022F00079693A69FB68FC65B86579653A65FB649C
:102300000023BB64FB6D03F00203002B2CD00C49AF
:102310000B4B1B6A114A1A40114B13430B620849BD
:10232000074B1A6A0F4B134043F45C130B624EE0E9
:1023300000ED00E00A00402089204000D80640203F
:1023400000060E40000C0E4008003700B11F400090
:10235000FFFFC8FEFEFFC8FFA9204000FCFFC8FE2B
:102360000200370187FFC8FFFB6D03F00103002B5C
:102370002DD04A4B1B6A03F00103002B0DD14749B6
:10238000464B1B6A464A1A40464B13430B62434B6B
:102390009B6E03F00103002BF9D0404B1B6A03F046
:1023A0008073002B0BD13D493C4B1A6A3E4B1343C3
:1023B0000B623A4B9B6E03F48033002BF9D0374904
:1023C000364B1A6A394B134043F45C130B62BA6DF7
:1023D000374B1340002B08D0304ABB6D43F00053FD
:1023E0009362BB6C43F00203BB643B6D03F00303D9
:1023F000022B05D1294B9B6E03F00203002BF9D071
:10240000264B1B6B7B6425497B6C23F070023B6D74
:1024100003F0700313430B63204B9B6E03F0080320
:10242000002BF9D0234AFB6C13601C4A3B6D1363ED
:102430001A4B9B6E03F00803002BF9D0174B9A6ED2
:10244000BB6C1340002BF9D01B4B00221A701B4BA6
:102450001B68002B05D0194B1B689847174B0022AF
:102460001A60174B01221A70BFF35F8F62B600BF6C
:1024700010E0144A134B1B6943F004031361124B21
:10248000124A1A600E4B01221A70BFF35F8F62B6B8
:1024900030BF00BF00BF6437BD4690BD00060E4090
:1024A000FCFFC8FF010037000000370187FFC8FFAD
:1024B0000000FF07000C0E40D8064020DC0640203C
:1024C0000A00402000ED00E010180E40040000A5B6
:1024D00080B483B000AFEFF310837B607B68002B88
:1024E0000CBF01230023DBB23B6072B6BFF35F8FEA
:1024F000044B00221A703B6818460C37BD465DF845
:10250000047B70470A00402080B483B000AF78603D
:102510007B68002B14BF01230023DBB218460C3765
:10252000BD465DF8047B704780B582B000AF78602F
:102530007868074B98470346002B05D0054B0122CE
:102540001A70BFF35F8F62B600BF0837BD4680BD0B
:10255000092540000A00402080B584B000AF1E4B22
:10256000FB601E4BBB60FA68BB689A420CD007E068
:10257000BB681A1DBA60FA68111DF96012681A600A
:10258000BB68174A9342F3D3164BBB6004E0BB68A9
:102590001A1DBA6000221A60BB68134A9342F6D330
:1025A000124BFB60124AFB6823F07F039360114BD0
:1025B00098477860104A104B1B6843F4700313600F
:1025C000BFF34F8FBFF36F8F78680C4B98470C4B5E
:1025D00098470C4B9847FEE73039400000004020F8
:1025E00044044020440440201807402000004000DC
:1025F00000ED00E0D124400088ED00E029254000F6
:1026000079374000D933400080B400AFFEE70000C6
:1026100080B400AF524B1B6B03F00303012B14D0AB
:10262000012B02D3022B38D07AE04E4B5B6903F0CA
:102630008003002B04D04C4B4FF400421A606FE033
:10264000494B4FF4FA421A606AE0454B1B6A03F0AB
:102650008073002B03D0444B444A1A6060E0424B25
:10266000434A1A603E4B1B6A03F07003102B04D0E0
:10267000202B08D0002B0ED00EE03B4B1B685B00DC
:10268000394A136008E0384B1A6813465B0013445C
:10269000354A136000E000BF42E0314B1B6A03F093
:1026A0008073002B03D0304B304A1A601CE02E4B55
:1026B0002F4A1A602A4B1B6A03F07003102B04D0B8
:1026C000202B08D0002B0ED00EE0274B1B685B00A0
:1026D000254A136008E0244B1A6813465B00134434
:1026E000214A136000E000BF1D4B1B6B03F0030386
:1026F000022B14D11A4B9B6A1B0CC3F30A03013340
:10270000194A126802FB03F3174A1360144B9B6AC1
:10271000DBB2154A1268B2FBF3F3134A136000BF31
:102720000F4B1B6B03F07003702B08D10E4B1B6813
:10273000104AA2FB03235B080B4A13600AE0084B14
:102740001B6B1B0903F00703074A126822FA03F305
:10275000054A136000BFBD465DF8047B704700BFAB
:1027600000060E4010180E4010004020001BB7005D
:1027700000093D00ABAAAAAA80B483B000AF78607C
:102780007B681D4A934204D81C4B4FF080621A604C
:102790002BE07B681A4A934203D8184B194A1A60F7
:1027A00023E07B68184A934203D8144B174A1A60F7
:1027B0001BE07B68164A934203D8104B154A1A60F7
:1027C00013E07B68144A934204D80C4B4FF0042268
:1027D0001A600AE07B68114A934203D8074B104AFB
:1027E0001A6002E0054B0F4A1A6000BF0C37BD4665
:1027F0005DF8047B704700BFBFF35E01000C0E4024
:102800007FE7BD02000100043FDB1C04000200045E
:10281000FFCE7B0500030004BFC2DA067FB639088D
:10282000000500040006000480B483B000AF034636
:10283000FB71094997F907305B09FA7902F01F0229
:10284000012000FA02F241F8232000BF0C37BD46F8
:102850005DF8047B704700BF00E100E080B483B006
:1028600000AF03463960FB7197F90730002B0BDA94
:102870000D49FB7903F00F03043B3A68D2B25201D1
:10288000D2B20B441A7609E0084997F907303A6842
:10289000D2B25201D2B20B4483F8002300BF0C37EE
:1028A000BD465DF8047B704700ED00E000E100E00C
:1028B00080B483B000AF78607B68072B25D801A275
:1028C00052F823F0E5284000EB284000F1284000B2
:1028D000F7284000FB284000FF2840000329400063
:1028E000072940004FF4FA4310E04FF400430DE095
:1028F0004FF400430AE0084B08E0084B06E0084BA1
:1029000004E0074B02E0064B00E0002318460C37BA
:10291000BD465DF8047B704700093D0000127A0057
:10292000001BB70080B500AF0620054B9847024654
:1029300013469B0013449A001344184680BD00BF01
:10294000B128400080B500AF024B984703461846B7
:1029500080BD00BF25294000F0B585B000AF78608C
:1029600039600023FB608CE001214A484A4B9847BC
:102970003B68002B26D03B681D464FEAE576474B67
:10298000984703464FF0000403FB06F105FB04F2F1
:102990000A44A5FB03342244144641F22B714FF044
:1029A00000025D1844EB0206284631463C4C41F2D9
:1029B0002C724FF00003A04703460C461846394BD3
:1029C000984716E0354B984703464FF000043649C8
:1029D0004FF000025D1844EB020628463146304CA9
:1029E000324A4FF00003A04703460C4618462D4BD1
:1029F0009847012127482E4B98473B68002B26D04B
:102A00003B681D464FEAE576244B984703464FF056
:102A1000000403FB06F105FB04F20A44A5FB0334A2
:102A20002244144641F22B714FF000025D1844EB32
:102A30000206284631461A4C41F22C724FF0000330
:102A4000A04703460C461846164B984716E0134B12
:102A5000984703464FF0000413494FF000025D18F9
:102A600044EB0206284631460D4C104A4FF0000355
:102A7000A04703460C4618460A4B9847FB680133AB
:102A8000FB60FA687B689A42FFF66EAF00BF1437AE
:102A9000BD46F0BD000E0E40A9174000452940007C
:102AA0006934400001004020DF835A00E0835A006F
:102AB000C5174000F0B585B000AF786039600023DD
:102AC000FB608EE04FF080414A484B4B98473B6893
:102AD000002B26D03B681D464FEAE576474B9847CA
:102AE00003464FF0000403FB06F105FB04F20A4421
:102AF000A5FB03342244144641F22B714FF000022F
:102B00005D1844EB0206284631463D4C41F22C72DA
:102B10004FF00003A04703460C461846394B984730
:102B200016E0364B984703464FF0000436494FF005
:102B300000025D1844EB020628463146304C334A09
:102B40004FF00003A04703460C4618462D4B98470C
:102B50004FF0804127482E4B98473B68002B26D0EA
:102B60003B681D464FEAE576244B984703464FF0F5
:102B7000000403FB06F105FB04F20A44A5FB033441
:102B80002244144641F22B714FF000025D1844EBD1
:102B90000206284631461A4C41F22C724FF00003CF
:102BA000A04703460C461846164B984716E0134BB1
:102BB000984703464FF0000413494FF000025D1898
:102BC00044EB0206284631460D4C104A4FF00003F4
:102BD000A04703460C4618460A4B9847FB6801334A
:102BE000FB60FA687B689A42FFF66CAF00BF14374F
:102BF000BD46F0BD00120E40A91740004529400017
:102C00006934400001004020DF835A00E0835A000D
:102C1000C5174000F0B585B000AF7860396000237B
:102C2000FB608CE004214A484A4B98473B68002BE4
:102C300026D03B681D464FEAE576474B984703464A
:102C40004FF0000403FB06F105FB04F20A44A5FB68
:102C500003342244144641F22B714FF000025D18F8
:102C600044EB0206284631463C4C41F22C724FF0B0
:102C70000003A04703460C461846394B984716E018
:102C8000354B984703464FF0000436494FF0000299
:102C90005D1844EB020628463146304C324A4FF06C
:102CA0000003A04703460C4618462D4B98470421C5
:102CB00027482E4B98473B68002B26D03B681D4683
:102CC0004FEAE576244B984703464FF0000403FB98
:102CD00006F105FB04F20A44A5FB03342244144622
:102CE00041F22B714FF000025D1844EB02062846BA
:102CF00031461A4C41F22C724FF00003A0470346B4
:102D00000C461846164B984716E0134B9847034657
:102D10004FF0000413494FF000025D1844EB020627
:102D2000284631460D4C104A4FF00003A047034699
:102D30000C4618460A4B9847FB680133FB60FA685B
:102D40007B689A42FFF66EAF00BF1437BD46F0BDF8
:102D500000100E40A917400045294000693440008A
:102D600001004020DF835A00E0835A00C51740006D
:102D700090B585B002AF78600A20124B98477A6808
:102D800000230093002301210F48104CA0470C2082
:102D90000C4B98477A680023009300234FF0804142
:102DA0000B480A4CA0470B20064B98477A68002333
:102DB0000093002304210748044CA04700BF0C37B0
:102DC000BD4690BD05204000000E0E407119400028
:102DD00000120E4000100E4090B583B002AF1020DC
:102DE000314B98470C20304B98470A202E4B984780
:102DF00001234FF080524FF020512C482C4CA0471B
:102E000001234FF000424FF020512A48284CA047A0
:102E100001234FF400224FF020512748244CA047B3
:102E2000264B009350234FF0805210211F48244C12
:102E3000A047244B009350234FF000420C211D4823
:102E40001F4CA047204B009350234FF400220A212F
:102E500019481B4CA0474FF0805114481B4B984712
:102E60004FF000411348194B98474FF40021124886
:102E7000164B98471020164B984704211020154BED
:102E800098470C20124B984704210C20114B98476F
:102E90000A200F4B984704210A200E4B984700BF89
:102EA0000437BD4690BD00BF0520400000140E4011
:102EB000D519400000120E40000E0E40D92E4000E1
:102EC000291C4000F12E4000092F40000D1B40003E
:102ED000292840005D28400080B400AF034B012248
:102EE0001A6000BFBD465DF8047B7047E4064020D1
:102EF00080B400AF034B01221A6000BFBD465DF8ED
:102F0000047B7047E806402080B400AF034B0122E9
:102F10001A6000BFBD465DF8047B7047EC06402098
:102F200080B582B000AF0C480C4B984778607B6846
:102F300003F00203002B02D0094B00221A607B68C9
:102F400003F00103002B02D0054B01221A6000BFE1
:102F50000837BD4680BD00BF30180E40AD014000AF
:102F6000E006402080B586B000AFF860B9607A60B6
:102F700000237B6123E07B699B00FA6813441B6894
:102F8000012B03D179680120164B98477B699B0080
:102F9000FA6813441B68022B03D179680120124B95
:102FA00098477B699B00FA6813441B68032B03D185
:102FB000796801200D4B98477B6901337B617A6901
:102FC000BB689A42D7DDB968F868094B9847386101
:102FD0003B69012B01D1012300E00023184618377B
:102FE000BD4680BD59294000B52A4000152C40003F
:102FF000F52F40002DE9F04F9BB000AF78643964A5
:103000006B467B604FF40053A7F8563028233B658E
:103010009B4A002313609B4A002313609A4A0023B3
:1030200013609A4A002313603A6C531EFB641346E4
:103030004FF00004660146EAD3665D0113464FF087
:1030400000044FEA441949EAD3694FEA431813468A
:103050009B0003330733DB08DB00ADEB030D6B464E
:1030600003339B089B00BB6400237B663EE0844BDC
:103070001B68012B07D1824B00221A60844B00226F
:103080001A70012388E17F4B1B68002B04D0B96CB8
:103090007A6E012341F822307B4B1B68002B04D051
:1030A000B96C7A6E022341F82230784B1B68002BF2
:1030B00004D0B96C7A6E032341F82230714B1B683F
:1030C000012B07D0704B1B68012B03D06F4B1B6883
:1030D000012B0BD17B6E01337B666A4A00231360A0
:1030E000694A00231360694A002313607A6E3B6CBF
:1030F0009A42BCDD01233B660023FB650FE0FB6DBC
:103100009A007B6C13441968BA6CFB6D52F823303B
:10311000994201D000233B66FB6D0133FB65FA6DDC
:103120003B6C9A42EBDD3B6E012B40F0A580012108
:103130005848594B98474FF080415848564B98474C
:1031400004215748544B9847564B98470346194615
:103150004FF000020B461446A000F863F86B40EAFB
:103160009370F8639B00BB63D7E90E345B1844EBA4
:103170000204DB1844EB04041946224641F22B7387
:103180004FF00004CD1842EB040628463146464C69
:1031900041F22C724FF00003A04703460C4618463C
:1031A000424B984701213B48414B98474FF08041A3
:1031B0003A483F4B9847042139483D4B9847394B93
:1031C0009847034619464FF000020B461446A000EC
:1031D0007863786B40EA937078639B003B63D7E930
:1031E0000C345B1844EB0204E000F862F86A40EA31
:1031F0005370F862DB00BB62D7E90A345B1A64EBF8
:10320000020420017862786A40EA137078621B0138
:103210003B62D7E908345B1844EB0204E200FA6130
:10322000FA6942EA5372FA61DB00BB61D7E90634FE
:103230001946224641F22B734FF00004CD1842EBA1
:10324000040628463146184C41F22C724FF0000318
:10325000A04703460C461846144B984701210D48D9
:103260000D4B98474FF080410C480B4B9847042179
:103270000B48094B98478BE00023BB6584E000BFF7
:10328000E0064020E4064020E8064020EC0640200E
:10329000F0064020000E0E40C517400000120E4000
:1032A00000100E40452940006934400001004020D4
:1032B000A91740003C4B1B68002B69D13B4B1B6896
:1032C000002B65D13A4B1B68002B61D10121394895
:1032D000394B98474FF080413848374B9847042185
:1032E0003748354B9847374B9847034619464FF0B8
:1032F00000020B461446A0007861786940EA93709A
:1033000078619B003B61D7E904345B1844EB02040D
:103310004FEA041B4BEA137B4FEA031ABAEB030A8A
:103320006BEB040B4FEA8B03FB60FB6843EA9A7379
:10333000FB604FEA8A03BB60D7E902AB51465A46AD
:1033400041F22B734FF00004CD1842EB04062846DF
:1033500031461D4C41F22C724FF00003A04703464A
:103360000C461846194B984701211248184B9847AC
:103370004FF080411148164B984704211048144BD8
:103380009847BB6D0133BB65BB6DB3F57A7F91DBAD
:10339000104B00221A700023D7F804D018466C375F
:1033A000BD46BDE8F08F00BFE4064020E80640209F
:1033B000EC064020000E0E40A917400000120E40FF
:1033C00000100E40452940006934400001004020B3
:1033D000C5174000F0064020B0B588B000AF174BCD
:1033E0009847174B9847174B9847174B4FF4004295
:1033F0005A60164B00221A600020154B9847154B57
:103400009847154B3C1D1D460FCD0FC495E8030092
:1034100084E803000523FB61104B1B78002B09D1C6
:103420000E4B01221A703B1D4FF4FA72F9691846CF
:103430000B4B984702200B4B9847EDE7F9164000DD
:10344000351240004906400050180E40E00640206A
:10345000712D4000D92D4000E8384000F006402092
:10346000652F40003921400053B94AB9002908BFEF
:1034700000281CBF4FF0FF314FF0FF3000F07AB949
:10348000ADF1080C6DE904CE00F006F8DDF804E0BB
:10349000DDE9022304B070472DE9F0478C460D4664
:1034A0000446089E002B51D18A4217466DD9B2FAC4
:1034B00082FEBEF1000F0BD0CEF1200C01FA0EF50A
:1034C00020FA0CFC02FA0EF74CEA050C00FA0EF496
:1034D0004FEA174A250CBCFBFAF81FFA87F90AFBDA
:1034E00018CC45EA0C4508FB09F3AB420AD9ED19A3
:1034F00008F1FF3280F02381AB4240F22081A8F135
:1035000002083D44ED1AA4B2B5FBFAF00AFB1055CF
:1035100044EA054400FB09F9A14509D9E41900F181
:10352000FF3380F00A81A14540F2078102383C4414
:10353000A4EB090440EA08400021002E61D024FADF
:103540000EF4002334607360BDE8F0878B4207D926
:10355000002E54D0002186E821000846BDE8F087FF
:10356000B3FA83F1002940F08E80AB4202D382424D
:1035700000F2FA80841A65EB03050120AC46002EA8
:103580003FD086E81010BDE8F08712B90127B7FBDD
:10359000F2F7B7FA87FEBEF1000F34D1EB1B3A0CFD
:1035A0001FFA87FC0121B3FBF2F8250C02FB18334C
:1035B00045EA03450CFB08F3AB4207D9ED1908F1C6
:1035C000FF3002D2AB4200F2D1808046ED1AA3B2A6
:1035D000B5FBF2F002FB105543EA05440CFB00FC7E
:1035E000A44507D9E41900F1FF3302D2A44500F243
:1035F000B8801846A4EB0C0440EA08409DE7314629
:103600003046BDE8F087CEF1200405FA0EF307FA44
:103610000EF720FA04F83A0C25FA04F448EA0308F5
:10362000B4FBF2F14FEA184502FB11441FFA87FC84
:1036300045EA044501FB0CF3AB4200FA0EF409D94C
:10364000ED1901F1FF3080F08A80AB4240F28780B3
:1036500002393D44EB1A1FFA88F5B3FBF2F002FB86
:10366000103345EA034500FB0CF3AB4207D9ED19D3
:1036700000F1FF386FD2AB426DD902383D44EB1AEE
:1036800040EA01418FE7C1F1200722FA07F88B4099
:1036900005FA01F448EA030320FA07FE4FEA134C47
:1036A000FD404EEA040EB5FBFCF94FEA1E440CFB4C
:1036B00019551FFA83F844EA054509FB08F4AC42A2
:1036C00002FA01F200FA01FA08D9ED1809F1FF3007
:1036D00043D2AC4241D9A9F102091D442D1B1FFA66
:1036E0008EFEB5FBFCF00CFB10554EEA054400FBCA
:1036F00008F8A04507D9E41800F1FF3529D2A04504
:1037000027D902381C4440EA0940A4EB0804A0FB76
:1037100002894C45C6464D4615D312D056B1BAEB78
:103720000E0364EB050404FA07F7CB401F43CC40BB
:10373000376074600021BDE8F0871846F8E69046CF
:10374000E0E6C245EAD2B8EB020E69EB03050138A8
:10375000E4E72846D7E7404691E78146BEE70146C1
:1037600078E702383C4445E7084608E7A8F1020834
:103770003D442BE7704700BF70B50F4E0F4D761BD1
:10378000B61018BF002405D0013455F8043B984703
:10379000A642F9D10A4E0B4D761B00F0B3F8B610D5
:1037A00018BF002406D0013455F8043B9847A642C0
:1037B000F9D170BD70BD00BF103940001039400014
:1037C0001839400010394000024B13B1024800F094
:1037D00005B8704700000000E937400000230146AB
:1037E0001A46184600F01EB838B50A4C0A4D641B3C
:1037F000A4100AD004F18043013B05EB8305013C92
:1038000055F804399847002CF9D1BDE8384000F04C
:1038100083B800BF2839400024394000704700BFFA
:10382000704700BF2DE9F8432C4D0646286898469E
:103830000F469146FFF7F2FF294B1C68D4F8483138
:10384000002B3ED05A681F2A1CDC02F1010E76B113
:1038500003EB82010124C1F88890D3F888019440D9
:103860002043022EC3F88801C1F8088123D0023218
:10387000C3F804E0286843F82270FFF7D1FF002066
:10388000BDE8F883174B0BB34FF4C870AFF300805B
:103890000346D8B1D4F848210260002141600A46AD
:1038A000C4F848014FF0010EC0F88811C0F88C111F
:1038B000002EDCD0CCE7D3F88C110C43C3F88C413C
:1038C000D5E704F5A673C4F84831BBE72868FFF7CD
:1038D000A7FF4FF0FF30BDE8F88300BF4004402051
:1038E000003940000000000001000000020000005C
:1038F00002000000030000000100000002000000C0
:1039000018004020F8B500BFF8BC08BC9E467047C0
:10391000C937400065014000F8B500BFF8BC08BCDD
:083920009E4670474101400082
:0839280070FBFF7F01000000AD
:10393000BFF35F8F0138FBD170470100000020000A
:1039400000093D00000000000000000004034020CA
:103950006C034020D4034020000000000000000061
:103960000000000000000000000000000000000057
:103970000000000000000000000000000000000047
:103980000000000000000000000000000000000037
:103990000000000000000000000000000000000027
:1039A0000000000000000000000000000000000017
:1039B0000000000000000000000000000000000007
:1039C00000000000000000000000000000000000F7
:1039D00000000000000000000000000000000000E7
:1039E00000000000000000000000000000000000D7
:1039F00001000000000000000E33CDAB34126DE674
:103A0000ECDE05000B0000000000000000000000DC
:103A100000000000000000000000000000000000A6
:103A20000000000000000000000000000000000096
:103A30000000000000000000000000000000000086
:103A40000000000000000000000000000000000076
:043D7000F4064020F5
:040000050040255939
:00000001FF
